:020000040800F2
:10C00000B015002005C1000801050108ADF90008C0
:10C0100039FD0008D1C900080139010800000000FD
:10C02000000000000000000000000000C52801081A
:10C030002FD500080000000003050108E5300108C5
:10C040001FC100081FC100081FC100081FC1000850
:10C050001FC100081FC100081FC100081FC1000840
:10C060001FC100081FC100081FC100081FC1000830
:10C070001FC100081FC10008CDD40008E9D4000882
:10C080001FC100081FC100081FC100081FC1000810
:10C090001FC100081FC100081FC1000831D50008DA
:10C0A0001FC100081FC100081FC100081FC10008F0
:10C0B0001FC10008DD3101081FC100081FC10008B1
:10C0C0001FC100081FC100081FC100081FC10008D0
:10C0D0001FC10008593801081FC100081FC100080E
:10C0E0001FC100081FC100081FC10008DFF810D0E1
:10C0F00000F01EFB0048004701490108AFF3008033
:10C10000B01500200648804706480047FEE7FEE7D6
:10C11000FEE7FEE7FEE7FEE7FEE7FEE7FEE7FEE7F7
:10C1200095310108EDC00008202A04DB203A21FAED
:10C1300002F00021704721FA02F3D040C2F1200240
:10C14000914008431946704740EA01039B0703D01A
:10C1500009E008C9121F08C0042AFAD203E011F846
:10C16000013B00F8013B521EF9D27047D2B201E008
:10C1700000F8012B491EFBD270470022F6E710B5EC
:10C1800013460A4604461946FFF7F0FF204610BD45
:10C19000421C10F8011B0029FBD1801A704780EA6D
:10C1A000010210B502F00043400022D04A001FD027
:10C1B000010E01EB1261C0F35600C2F3560240F4C7
:10C1C000000042F40002A0FB022000047F391404A6
:10C1D00000D0401C50EA124001D44000491EC2B2B7
:10C1E0000C0604EBD010401C4008802A02D003E06B
:10C1F000002010BD20F00100002900DA00201843C3
:10C2000010BD30B480EA010202F0004530F0004277
:10C2100021F0004013D090B1C30DD40DC2F316012C
:10C22000C0F31600E41A41F4000140F400027D342A
:10C23000914201D3641C00E04900002C02DA30BCBA
:10C24000002070474FF400000023914201D3891A67
:10C25000034340084FEA4101F7D151B1914202D165
:10C260004FF0004105E002D24FF0010101E06FF014
:10C27000010103EBC450284430BC00F069B8C10F81
:10C2800080EAE0700844CA079623002100F069B8EC
:10C2900000F0004220F00040C10DC0F3160040F451
:10C2A00000007F2901DA00207047962903DCC1F1E4
:10C2B0009601C84001E096398840002AF4D04042F7
:10C2C000704730B50B46014600202022012409E0CA
:10C2D00021FA02F59D4205D303FA02F5491B04FA3F
:10C2E00002F52844151EA2F10102F1DC30BD2DE952
:10C2F000F05F0546002092469B46884606468146EA
:10C3000040241BE02846414647462246FFF70CFFE3
:10C3100053465A46C01A914110D311461846224638
:10C3200000F018FA2D1A67EB01084F46224601204B
:10C33000002100F00FFA17EB00094E41201EA4F176
:10C340000104DFDC484631462A464346BDE8F09FFB
:10C350000029A8BF7047401C490008BF20F0010019
:10C36000704710B4B0FA80FC00FA0CF050EA0104F7
:10C3700004BF10BC704749B1CCF1200421FA04F489
:10C3800011FA0CF118BF012121430843A3EB0C0162
:10C39000CB1D4FEA00614FEA102042BF002010BCC5
:10C3A000704700EBC35010440029A4BF10BC704775
:10C3B000401C490008BF20F0010010BC70472DE967
:10C3C000FE4F804681EA0300C00F0C46009021F02A
:10C3D000004123F00045B8EB0200A94105D24046D8
:10C3E000214690461C460B46024623F0004010436F
:10C3F00047D0270DC7F30A00C3F30A510290401A31
:10C40000019040286BDAC3F3130040F4801B0098BE
:10C41000924620B10023D2EB030A63EB0B0B019889
:10C420005946C0F14002504600F094F906460D46C8
:10C4300050465946019A00F09CF910EB0800614102
:10C44000002487EA115284EAE7731A4340D0009A25
:10C4500062B3019A012A4FEA075215DC001B61EB17
:10C4600002014FF0004202EA0752CDE90042001CEF
:10C4700041F5801132462B4600F09CF903B0BDE82F
:10C48000F08F40462146F9E7001B61EB0201001CDA
:10C4900041F5801300185B412018A2F5001747EB07
:10C4A000030140EAD570B6196D4111E06D084FEAFD
:10C4B000360645EAC0754FEA0752001B61EB0201E0
:10C4C000001C41F5801149084FEA30000019514124
:10C4D00032462B4603B0BDE8F04F00F05CB900983F
:10C4E000012240000023D0EB020263EBE0730098CE
:10C4F00021464FEAE074B8EB000061EB0401E9E784
:10C5000083F000435BE781F0004158E72DE9FE4FDF
:10C5100081EA030404F0004421F0004100944FF04C
:10C52000000B23F0004350EA01045ED052EA0304FA
:10C530005BD0C3F30A54C1F30A552C44A4F2F3347C
:10C540000194A0FB0254C1F3130141F48011C3F321
:10C55000130343F4801301FB024400FB034E840ADF
:10C56000970A44EA815447EA8357A4FB0768029577
:10C570008D0A05FB07854FEA932C04FB0C54270515
:10C58000029D4FEA065847EA1637B5EB08056EEBF1
:10C59000070C870E920E47EA811742EA8312A7FB27
:10C5A0000201B6EB0B0164EB00042B0D43EA0C33E4
:10C5B0005E1844EB1C50DA465146E7FB0201C5F316
:10C5C00013044FEA0B3343EA14534FEA0432019C3D
:10C5D00043EA0603A4F10C040294009CCDE900B4E4
:10C5E00000F0E8F803B0BDE8F08F00200146F9E75D
:10C5F0002DE9F04D81EA030404F0004B21F00045E1
:10C6000014464FF0000A23F0004150EA050220D002
:10C6100054EA01021DD0C5F30A570246C5F31303BD
:10C62000C1F31300C1F30A5640F4801543F480139C
:10C63000A7EB0608101BD64608F2FD3873EB050081
:10C6400002D308F1010801E092185B41B8F1000F34
:10C6500003DA00200146BDE8F08D00204FF4801180
:10C66000064684460EE0171B73EB050705D3121B25
:10C6700063EB050306434CEA010C49084FEA30001E
:10C6800092185B4150EA0107EDD152EA030012D043
:10C6900082EA040083EA0501084305D0101BAB4180
:10C6A00006D20122002306E000224FF0004302E000
:10C6B0006FF0010253101AEB06004CEB085110EB1F
:10C6C0000A0041EB0B01BDE8F04D00F064B8C1F386
:10C6D0000A52C1F3130140F2FF3341F480119A4230
:10C6E00002DA00200146704740F233439A42A2F238
:10C6F000334202DC5242FFF717BD00F02BB80000B6
:10C7000030B5041E71F1000404DB4FF000444042D8
:10C7100064EB0101141E73F1000405DB1C464FF0AD
:10C720000043524263EB0403994208BF904230BD7C
:10C73000064C074D06E0E06840F0010394E807006E
:10C7400098471034AC42F6D3FFF7D4FC28770108A1
:10C7500048770108202A04DB203A00FA02F1002081
:10C7600070479140C2F1200320FA03F3194390402F
:10C770007047202A06DBCB17203A41FA02F043EA41
:10C78000E07306E041FA02F3D040C2F1200291408A
:10C7900008431946704710B5141E73F1000408DAF7
:10C7A000401C41F1000192185B411A4301D120F075
:10C7B000010010BD2DE9F04D92469B4611B1B1FA32
:10C7C00081F202E0B0FA80F220329046FFF7C2FF19
:10C7D00004460F4640EA0A0041EA0B0153465A4616
:10C7E000084313D0114653EA010019D0C8F14002A2
:10C7F0005046FFF799FC05460E46504659464246BC
:10C80000FFF7A8FF084305D0012004E02046394681
:10C81000BDE8F08D0020054346EAE0762C4337431F
:10C820000A986305E40AA0EB08000022FD0A44EA26
:10C8300047540A3002D500200146E9E701051019E6
:10C840006941DDE9084500196941BDE8F04DA2E7FD
:10C8500070B58C1810F8015B15F0070301D110F8C2
:10C86000013B2A1106D110F8012B03E010F8016BEF
:10C8700001F8016B5B1EF9D12B0705D40023521E72
:10C880000DD401F8013BFAE710F8013BCB1A921CDA
:10C8900003E013F8015B01F8015B521EF9D5A142D8
:10C8A000D8D3002070BD70B5044600688168C943C4
:10C8B000C9071BD1816821F00101816001F066FE8A
:10C8C00005460EE001F062FE401B022809D9A06A6D
:10C8D00040F01000A062E06A40F00100E062012038
:10C8E00070BD20688068C043C007EBD0002070BDD9
:10C8F00010B50146806A826A12F0500F05D0006AB6
:10C90000426BBDE8104008461047816A41F400714F
:10C91000816201688968C1F3424107290CD1C1686D
:10C9200051B9816A21F480718162816AC90403D49A
:10C93000816A41F00101816201F07AF910BD10B500
:10C94000806A816A41F040018162C16A41F004015C
:10C95000C16201F06FF910BD10B5806A01F069F98C
:10C9600010BD0000F8B500260446009600688168F6
:10C97000C943C90726D0816841F00101816012488E
:10C9800012490068B0FBF1F000E0401E0090002862
:10C99000FBD101F0FBFD05460FE001F0F7FD401B68
:10C9A00002280AD9A06A40F01000A062E06A40F0B4
:10C9B0000100E06201206662F8BD20688068C04323
:10C9C000C007EAD10020F8BD0C00002040420F0053
:10C9D000FEE7000010B503F03BFE0020074B0246C7
:10C9E00000EB4001401C03F8212003EB810180B2E1
:10C9F0004A608A600328F3D310BD0000000D0020B8
:10CA0000032806D2044900EB400001EB8000406897
:10CA10007047002070470000000D002007490128E2
:10CA200003D0022805D000207047086840F300308A
:10CA300002E0086840F38000401C7047080C014089
:10CA4000F0B50023204D044603261A461846FFF78A
:10CA5000E5FF03EB430105F8210005EB81014F6879
:10CA6000082F2CD2DFE807F00407121D212A262AFE
:10CA7000F8B101201BE030B1886820448860142898
:10CA80001DD9042013E04A608A6018E038B1886834
:10CA900020448860B0F57A7F11D9062007E0052090
:10CAA00005E030B90720486009E038B10220C1E94B
:10CAB000010204E010B1C1E9016200E04A605B1CC0
:10CAC0009BB2032BC2D3F0BD000D00202DE9F04333
:10CAD000504C00254FF4804704EB45063A46B6F823
:10CAE000C811F08E00F0ACFC6D1CF086C92DF3D39C
:10CAF000B4F8C411E08E3A4600F0DDFC01254FF099
:10CB00000009002803D005DD84F85A5304E065606D
:10CB1000BDE8F08384F85A934FF001034FF002060A
:10CB200004EB43003A46818EC08E00F0C4FC00281E
:10CB300001DB014600E04142792906DC002801DBE7
:10CB4000014600E04142282902DAC4E90163DFE737
:10CB5000002805D094F85A0301DD08B103E010B1B4
:10CB6000C4E90153D4E703F10103C82BD8D300254E
:10CB700010F0FF0F4FF0030843F6FF772B4624D049
:10CB8000C821581C00F091FC04EB4000C821C68E5F
:10CB9000184600F08AFC04EB4000C08E86420CD59B
:10CBA000C82118466D1CC4F85C3300F07EFC04EB11
:10CBB0004000C08E381AC4F860035B1CC82BDFD35A
:10CBC000012D24D0C4F80480A2E7C821581C00F02D
:10CBD0006CFC04EB4000C821C68E184600F065FCD2
:10CBE00004EB4000C08E301A00280CDD581CC82110
:10CBF0006D1CC4F85C3300F058FC04EB4000C08EA0
:10CC0000381AC4F860035B1CC82BDED3D8E7C4F81D
:10CC100004907DE7D408002006480021017041609F
:10CC20008160C1600161C0F85C13C0F86013C0F896
:10CC300064137047D40800202DE9F05F524C534A2A
:10CC4000204600F11603818AD4F80CC000EB4101A4
:10CC5000006900251288471C461E4FF448494FF4CE
:10CC6000C83A4FF4804BBCF1070F13D2DFE80CF049
:10CC700004142147545F8600217800290AD04FF41C
:10CC8000FA6103F0A5FEC4F81090A582012065604A
:10CC9000C4E90250BDE8F09F801C4FF4FA612061A6
:10CCA00003F096FE20695045F4D10220C4E903093F
:10CCB000F0E710F0FF0F0AD027614FF4FA61206906
:10CCC00003F086FE20695045E4D9032022E0CA82A1
:10CCD000A08A401C80B2A0821028EED15A461021B2
:10CCE000184600F0BFFB2169A1F54841090A04EB91
:10CCF0004101C886A5822069401C2061DDE74FF410
:10CD0000FA613846276103F063FE2069B0F5D23F2F
:10CD1000C0D10420E060BDE74FF4FA6130462661DF
:10CD200003F056FE20695045B4D10520F2E710F01B
:10CD3000FF0F0AD026614FF4FA61206903F048FE24
:10CD400020694845A6D20620E4E7CA82A08A401C92
:10CD500080B2A0821028EED15A461021184600F069
:10CD600081FB2169A1F54841090A04EB4101A1F8C1
:10CD7000C801A5822069401E2061DCE7BDE8F05FA4
:10CD80000021084603F024BED40800201A00002029
:10CD90002DE9F84F9F4CE068062873D103F06AFE36
:10CDA000FFF794FE6068A2464FF0000B00286AD19E
:10CDB00054469948CAF864B306F01CF9964806F040
:10CDC00011F994F85A03DAF85C4300284FF4484705
:10CDD000504679D04FF48049D0466DE0C8212046B6
:10CDE00000F063FB03EB4000C821C58E601C00F01F
:10CDF0005CFB03EB40004A46C08E294600F05BFB1B
:10CE00000546D3F85C03A0421BD19846D3F8606373
:10CE100014E0300290FBF5F000EB0420394600F0FE
:10CE200044FBADF80000012269467B4806F017F983
:10CE3000D8F86413491C761CC8F86413AE42E8DBCA
:10CE400039E0C830A0424FF00006984615D030E0D7
:10CE5000300290FBF5F000EB0420394600F025FB92
:10CE6000ADF80000012269466B4806F0F8F8D8F8E2
:10CE70006413491C761CC8F86413D8F86003B042E8
:10CE8000E6DC18E0C0E0AFE0300290FBF5F000EB2C
:10CE90000420394600F009FBADF800000122694684
:10CEA0005D4806F0DCF8D8F86413491C761CC8F815
:10CEB0006413AE42E8DB641CD8F85C034346C93017
:10CEC000A0428BDC81E0FFE7C83478E0C821601C19
:10CED00000F0EBFA03EB4000C821C58E204600F0BD
:10CEE000E4FA03EB40004FF48042C08E294600F084
:10CEF000E2FA0546D3F85C0300F1C801A1421ED155
:10CF0000200200F580789946D3F8606314E030027F
:10CF100090FBF5F1A8EB0100394600F0C6FAADF838
:10CF20000000012269463C4806F099F8D9F86413DC
:10CF3000491C761CC9F86413AE42E8DB3EE0A0420F
:10CF40004FEA04204FF0000600F580701CD18146A6
:10CF5000984614E0300290FBF5F1A9EB0100394648
:10CF600000F0A3FAADF80000012269462A4806F055
:10CF700076F8D8F86413491C761CC8F86413D8F8FE
:10CF80006003B042E6DC19E08046994614E03002C6
:10CF900090FBF5F1A8EB0100394600F086FAADF8F8
:10CFA0000000012269461C4806F059F8D9F86413BC
:10CFB000491C761CC9F86413AE42E8DB641EDAF83B
:10CFC0005C035346401EA04280DB134806F03CF849
:10CFD000DAF86413B1F5804F03D00421CAF80410C5
:10CFE00002E0DAF8040088B10C490B4881F804B07B
:10CFF00006F000F805F04EFD09490120A1F8600097
:10D00000CAF80CB08AF800B0BDE8F88F03490120D7
:10D010000871EFE7D4080020B40000201A000020B7
:10D0200068080020084B002819469865D1F82E2082
:10D0300002DD02F5807202E001DAA2F5807201469B
:10D0400010465A6503F0C4BC68080020104A00B5B9
:10D05000108810B9C82000F035F8508810B9502059
:10D0600000F024F8908818B94FF4967000F036F864
:10D07000D08810B9FA2000F00DF800209061D0613E
:10D08000106250629062D0621063506300BD000075
:10D09000220800200449B0F5806F02D848610120C1
:10D0A00000E00020C8807047220800200449B0F545
:10D0B000806F02D8C860012000E0002048807047DF
:10D0C000220800200449B0F5806F02D88860012052
:10D0D00000E0002008807047220800200449B0F5D5
:10D0E000806F02D80861012000E00020888070472E
:10D0F00022080020F0B42B4CD4F82E20831AA4F17F
:10D1000046008361D4F82250491BC9114FF4486589
:10D11000C161AB4202DC6D42AB4200DA85614FF483
:10D120007A63994202DC5B42994200DAC361856806
:10D1300081694D430562C36AC66806FB0131036914
:10D14000C66903FB0613D9110163A3EBC113C362C4
:10D15000436A1944144B4162994202DC5B42994292
:10D1600000DA4362416971438162436A2B44194486
:10D17000891240F6B8334163994202DC5B4299421E
:10D1800000DA4363416BA165002902DD02F580727C
:10D1900002E001DAA2F580726265F0BC104603F08D
:10D1A00017BC00006808002000E02E000D4A00B502
:10D1B000108810B9052000F033F8508810B91E20EF
:10D1C00000F020F8908810B9002000F00DF8002041
:10D1D00042F8120F50609060D06010615061906111
:10D1E000D06100BDF00700200549B0F5806F03D87D
:10D1F000C1F80E00012000E0002088807047000088
:10D20000F00700200549B0F5806F03D8C1F80A0087
:10D21000012000E00020488070470000F007002057
:10D220000549B0F5806F03D8C1F80600012000E081
:10D230000020088070470000F0070020F0B42F495C
:10D2400001F17803D1F81250C1F81650D3F822201A
:10D25000801A4FF48012C1F81200904202DC524250
:10D26000904201DAC1F81220D1F80660D1F812001C
:10D270004643C1F81A60D1F82620D1F80A4004FBD1
:10D280000024A212C1F82A20A4EB8224C1F826406F
:10D29000D1F81E4022441A4CC1F81E20A24202DCE2
:10D2A0006442A24201DAC1F81E40D1F80E20401BB0
:10D2B0005043C1F82200D1F81E203244104480129D
:10D2C00040F6B832C1F82E00904202DC5242904241
:10D2D00001DAC1F82E200948D1F82E10783099656E
:10D2E000D0F82E00002902DD00F5807002E001DA9E
:10D2F000A0F580705865F0BC03F06ABBF007002011
:10D3000000E02E008208034803681A640068890858
:10D31000C1637047E0020020F0B5274B00271C4690
:10D320001969E268D4F80250A0EB010CA46844F635
:10D330002066BCF1000F0FD01CDD00290EDB2A4453
:10D3400092FBF6F4214492FBF6F406FB14221961D9
:10D35000DA6081421CDA2BE0186129E0101990FB99
:10D36000F6F2511890FBF6F206FB12001961D86034
:10D370001CD51DE000290DDC521B92FBF6F4214464
:10D3800092FBF6F406FB14221961DA6081420FDC8D
:10D39000DF60E1E7101B90FBF6F2114490FBF6F220
:10D3A00006FB12001961D860002901DCDF601F61F3
:10D3B00018695861F0BD0000860C002030B5094C9A
:10D3C00041F27075208810B9284600F027F8E088EF
:10D3D00010B9284600F010F80020E060206160617C
:10D3E00030BD0000860C002002490022CA6008619E
:10D3F00070470000860C0020002800DA4042421EE0
:10D400004EF65F2304499A4202D88860012000E06A
:10D410000020C88070470000860C0020002800DA39
:10D420004042421E4EF65F2304499A4203D8C1F897
:10D430000200012000E0002008807047860C0020D8
:10D44000431A08444FEA600000D55B42B3EB620F19
:10D4500004DDB0EB620F02DBA0EB6200704700EB73
:10D4600062007047F0B5B0F800C001236546C2F114
:10D47000000E0FE030F81340A4EB0C072646B7EB84
:10D48000620F00DDB41AB7EB6E0F00DAB4185B1C44
:10D4900025449BB28B42EDD395FBF1F0002800DAD6
:10D4A0001044904200DD801AF0BD0844B0FBF1F258
:10D4B00001FB12007047401AB0EB620F00DD801ACA
:10D4C0005142B0EB610F00DA1044704710B50448C8
:10D4D00000F02EFD0348C168491CC16010BD00006A
:10D4E000B00300209811002010B5044800F020FD82
:10D4F00003480169491C016110BD0000F8030020C8
:10D500009811002030B590F844500124AC40056CCF
:10D510006C60046863604368102B036803D09960F3
:10D520000068C26030BD9A600068C16030BD70475D
:10D53000064810B50168090603D58021016005F091
:10D5400023FA03484168491C416010BD140401409E
:10D55000981100207047000006490020C861064865
:10D56000016941F004010161016941F0400101617B
:10D57000704700005804002000200240064A0021A5
:10D58000D16106490A6942F002020A6148610869EC
:10D5900040F040000861704758040020002002401D
:10D5A000044B0022DA61044A136943F0010313615A
:10D5B00001807047580400200020024014490020D8
:10D5C000CA68D306134A04D5D06940F00200D0617E
:10D5D0001020CB685B0705D5D36943F00103D36105
:10D5E00040F00400CB69DB0707D0D36943F00403A4
:10D5F000D361CA6922F00102CA61A0F58072013AC2
:10D6000001D0C8607047C86920F00100C861704748
:10D61000002002405804002070B5044600F0B6FF18
:10D620000546114E09E0601C07D024B100F0AEFFA2
:10D63000401BA04201D9032070BDF068C007F2D1A1
:10D64000F068800601D52020F060F068C00605D49F
:10D65000F069C00702D1F068400703D5FFF7AEFFBD
:10D66000012070BD002070BD0020024010B50022D6
:10D670001346002101EBC214491CC9B2035580298D
:10D68000F8D3521CD2B2042AF3D310BD2DE9FF4FB8
:10D6900081B099460D46DDF838B014465B1BABEB04
:10D6A0000402180000D55842002A01DB114600E0B0
:10D6B000514209B24FF0FF37002B02DD4FF001035A
:10D6C00004E001DAB84602E04FF000039846002A71
:10D6D00002DD4FF0010702E001DB4FF00007884256
:10D6E00025DBC0EB410216B24A00081A12B2400014
:10D6F0000FFA80FA00920DE0002E03DA0098304411
:10D7000006B204E006EB0A0006B2E019C4B205EB6B
:10D710000800C5B2224629460F9B019800F031F857
:10D7200048464D45E8D15A4601460F9B23E0C1EBE0
:10D7300040024FEA400A401A400000B216B2009080
:10D740000DE0002E03DA06EB0A0006B205E00098B1
:10D75000304406B205EB0800C5B2E019C4B2224657
:10D7600029460F9B019800F00CF858465C45E8D11B
:10D770000F9B02464946019805B0BDE8F04FAFF354
:10D78000008030B580290FD2202A0DD202F0070583
:10D790000124AC40D20801EBC211E4B2425C0BB1EF
:10D7A000224300E0A243425430BD00002DE9FF4F68
:10D7B00081B000250E989146012806D0022808D095
:10D7C00003280BD004287BD10CE04FF0060B082077
:10D7D00002E04FF0060B0C20804607E04FF0080BEC
:10D7E0001020F9E74FF00C0B1820F5E7B8F1080FFF
:10D7F00002D94FF0080A00E0C2460498002600EB68
:10D800004000009052E00E98012806D002280CD06B
:10D81000032814D0042827D11BE02C49009801EBE1
:10D820004000284410F8C07C1EE02949009801EB14
:10D8300080002844A0F5805090F8807E14E02549AF
:10D84000049801EB00102844A0F5805090F8007E69
:10D850000AE00498204900EBC00001EB8000284456
:10D86000A0F5805090F8807B002419E00120A040B2
:10D87000384207D009EB0400C2B202980F9B304433
:10D88000C1B208E00F9880F0010309EB0400C2B2B6
:10D8900002983044C1B20198FFF773FF641CE4B2F0
:10D8A0005445E3D36D1C761CADB2F6B25E45AAD3E7
:10D8B00009EB0A0000F0FF09A8EB0A0000F0FF08DE
:10D8C000B8F1000F92D105B0BDE8F08F8E5201087B
:10D8D000C85401083C5901082C5F01082DE9F047A4
:10D8E00086B09046DDE90E46109D894682460B2C97
:10D8F00000D90B2402AFA3B11A4611A1384606F095
:10D900001FFA40B2401E0B2808D83B1B4246CDE907
:10D910000065494650460B3300F05DF806B0BDE89F
:10D92000F087002020213954401CC0B20A28FAD3C5
:10D9300030208DF8120000208DF813003B1BE6E725
:10D940002531312E6C6900002DE9FF4F81B017465B
:10D950000E988A464FF0000900935FEA000840469F
:10D9600036D0B8F1080F01D9082600E00646002598
:10D9700025E00F98002410F809B018E00120A0401D
:10D9800010EA0B0F06D03819C2B20AEB0500C1B27B
:10D99000109B07E0109880F001033819C2B20AEB1F
:10D9A0000500C1B20198FFF7ECFE641CE4B2B4427A
:10D9B000E4D309F101006D1C1FFA80F9EDB2009863
:10D9C0008542D6D3B819C7B2A8EB0600C0B2C4E7E7
:10D9D00005B0BDE8F08F2DE9FC431E46DDE909578F
:10D9E00090460C46814614E0CDE900574246214658
:10D9F0004846FFF7DBFE012D06D0022D04D0032D93
:10DA000004D0042D04D10BE0A41D00E00834E4B2DE
:10DA1000761C3378A3F120005E28E5D9BDE8FC83AD
:10DA20000C34F4E700210A4B0CE003EBC1029288AE
:10DA3000824204D953F8311031F810007047801A2F
:10DA400080B2491C53F83120002AEED100207047E3
:10DA50002001002000200146064A05E002EBC10338
:10DA6000491C9B88184480B252F83130002BF5D104
:10DA70007047000020010020F8B5002604460096FB
:10DA8000406A012807D0012060622046FEF70BFFA4
:10DA9000070002D04AE00220F8BDA06A20F48850B6
:10DAA00040F00200A062022000F030FE2149096827
:10DAB000B1FBF0F0400000E0401E00900028FBD1D8
:10DAC0002046FEF74FFF2068816841F00801816021
:10DAD00000F05CFD054604E000F058FD401B0A28FC
:10DAE00011D8206880680007F6D42068816841F06A
:10DAF0000401816000F04AFD05460DE000F046FD9E
:10DB0000401B0A2808D9A06A20F0020040F010004B
:10DB1000A06201206662F8BD206880684007EDD4ED
:10DB2000A06A20F0020040F00100A0623846666260
:10DB3000F8BD00000C000020F8B500230093426AF5
:10DB40001C46012A11D0012242624A681F26072A78
:10DB50000DD205686F6B521E02EB82029640B743EE
:10DB60000E68964037436F6319E00220F8BD0568E0
:10DB70000D2A0AD22F6BD21F02EB82029640B743C6
:10DB80000E68964037432F6309E0EF6A0D3A02EBC7
:10DB900082029640B7430E6896403743EF620A68A8
:10DBA000072605680A2A0AD3EF680A3A02EB4202FE
:10DBB0009640B7438E6896403743EF6008E02F6980
:10DBC00002EB42029640B7438E68964037432F617E
:10DBD0000A68102A01D0112A20D1124D0268AA42E7
:10DBE00017D195682D0219D4956845F40005956004
:10DBF0000968102912D10C490C4A0968B1FBF2F1ED
:10DC000001EB8101490000E0491E00910029FBD190
:10DC100004E0816A41F020018162012344621846D8
:10DC2000F8BD0000002401400C00002040420F001D
:10DC300070477047704700002DE9F0414FF0000633
:10DC4000040035467CD0A06A002720B9E762204650
:10DC5000676200F07DF82046FEF725FEA16AC9063E
:10DC600000D420B1A06A40F01000A06268E0A16A70
:10DC700021F4885141F00201A1626268E169E36820
:10DC80000A4346EA43010A43A1684FF48076B14251
:10DC900008D0012906D00021D4F814C0BCF1010F2E
:10DCA00002D00AE03146F7E7F3B1A36A43F020035C
:10DCB000A362E36A43F00103E3622368D3F804C07C
:10DCC0002CF4694C4CEA010CC3F804C021688B6841
:10DCD000DFF870C003EA0C0313438B60A168B14204
:10DCE0000BD0012909D00CE0DFF85CC0A3690CEB74
:10DCF00043330B4343F40061DFE7218A0D05A5F5AB
:10DD000080152168CB6A23F470032B43CB62216812
:10DD100089680E4B1940914208D1E762A16A21F04F
:10DD2000020141F00101A162BDE8F081A06A20F08A
:10DD3000020040F01000A062E06A40F00100E062E2
:10DD40000120F1E7FDF7E1FF00E0FFFFFE0E1FFFFE
:10DD5000704700002DE9F0478946044639490068BC
:10DD6000394F0E1D9046884201D0B84207D1306825
:10DD700010F4702F03D001252846BDE8F087606AB3
:10DD800001280AD0012060622046FEF7EBFD050065
:10DD90004FF0000103D06162EEE70220EDE7A06AD8
:10DDA00040F60162904340F48070A0622068B8425F
:10DDB00018D1326812F4702F14D0A06A40F4801089
:10DDC000A0623068400505D5A06A20F4005040F4F8
:10DDD0008050A062A06AC0040AD5E06A20F0060064
:10DDE000E06206E0A26A22F48012A2624068E9E7DB
:10DDF000E1626162216A1548C862216A14480863B9
:10DE0000216A1448486321686FF0020008602068A6
:10DE1000816841F480718160216843464A464C31F3
:10DE2000206A00F05DF920688168C1F3424107294A
:10DE3000816803D041F4801181609DE741F4A00125
:10DE4000FAE700000024014000280140F1C8000862
:10DE500059C900083FC9000810B5416A00220229CB
:10DE600004D00421C1630262012010BD01680B6867
:10DE700023F00E030B6001680B6823F001030B60B5
:10DE800090F84430012404FA03F1036C5960C0E9AE
:10DE90000824104610BD000010B5416A0024022974
:10DEA00003D00421C16301243BE001680A6822F029
:10DEB0000E020A6001680A6822F001020A601A4A2A
:10DEC0000168914201D1012121E0174A14329142A7
:10DED00001D110211BE0144A2832914201D1891549
:10DEE00015E0114A3C32914201D189140FE00E4AEB
:10DEF0005032914202D14FF4803108E00A4A643234
:10DF0000914202D14FF4801101E04FF08071064A36
:10DF1000083A51600121416200210162816B01B127
:10DF20008847204610BD000008000240C06B7047C3
:10DF30002DE9F05F016C0B6801680A68446C4FF0D2
:10DF4000040C0CFA04FC494DDFF824A1494E4A4F59
:10DF5000DFF828B1DFF828E11CEA030F2DD05FEAD3
:10DF6000427C2AD50A68920603D40A6822F0040289
:10DF70000A600168A94201D1042119E0514501D18B
:10DF8000402115E0B14202D14FF4806110E0B94266
:10DF900002D14FF480410BE0594502D14FF480216A
:10DFA00006E0714502D14FF4800101E04FF080613D
:10DFB0002E4A083A5160016B3BE04FF0020808FA24
:10DFC00004F818EA030F4FF000094FF0010C35D0A8
:10DFD0005FEA827832D50A68920605D40A6822F090
:10DFE0000A020A60C0F824C00168A94201D10221D6
:10DFF00019E0514501D1202115E0B14202D14FF481
:10E00000007110E0B94202D14FF400510BE05945C4
:10E0100002D14FF4003106E0714502D14FF40011F6
:10E0200001E04FF00071114A083A5160C0F82090A9
:10E03000C16A002918D0BDE8F05F08470825A5404F
:10E040001D4211D012070FD50A6822F00E020A6095
:10E0500090F84410026C0CFA01F15160C0F83CC019
:10E06000C0E9089C416BE4E7BDE8F09F080002406E
:10E070001C000240300002404400024058000240B0
:10E080006C00024030B528B3134A016814230A44D7
:10E09000B2FBF3F292004264104A0264022242622E
:10E0A0000B6843F6F0729343D0E901242243D0E990
:10E0B00003452C4322434469224384692243C469B3
:10E0C00022431A430A600021C1630122C0E90812F9
:10E0D000084630BD012030BDF8FFFDBF0000024002
:10E0E00070B50446006A0025012809D0012020628D
:10E0F000666A0020012E05D002252062284670BDE8
:10E10000022070BD02266662E0632068066826F081
:10E11000010606602046FFF7F5F9206B002820680D
:10E12000016802D041F00E0106E021F00401016017
:10E130002068016841F00A0101602068016841F02F
:10E1400001010160DAE7000070B5044600F01EFA34
:10E150000546601C02D004484068044400F016FAEA
:10E16000401BA042FAD370BD000000202DE9F0470B
:10E17000054626480F460126816901290FD0012155
:10E18000814681612868DFF888804CF2503402288B
:10E1900008D0A2462046FFF73FFAA8B131E002209E
:10E1A000BDE8F0872046FFF737FA08BB0120FFF7EC
:10E1B000D3F92046FFF730FAD8F81010064621F0C0
:10E1C0000401C8F810101CE04FF0FF303860AC6854
:10E1D00011E02046FFF7D2F95046FFF71DFAD8F8B4
:10E1E0001010060021F00201C8F8101001D03C60A8
:10E1F00007E004F58064D5E9020100EB8120A0422C
:10E20000E7D800213046C9F81810C9E758040020A3
:10E21000002002400348016941F0800101610020B3
:10E2200070470000002002402DE9F05F05461D48C0
:10E2300088460024816916461F46012909D001211C
:10E2400081464CF2503A81615046FFF7E5F918B12A
:10E2500023E00220BDE8F09F012D02D0022D00D066
:10E260000425D346DFF840A015E0220130463946A8
:10E27000FDF75AFF81B208EB4400FFF791F95846C9
:10E28000FFF7CAF9DAF8102022F00102CAF81020CC
:10E2900018B9641CE4B2AC42E7D30022C9F81820D4
:10E2A000D8E7000058040020002002400649002062
:10E2B0000A69120607D5054A4A60054A4A60096993
:10E2C000090600D501207047002002402301674560
:10E2D000AB89EFCD2DE9F0430022DFF8C0904FF07D
:10E2E0000F0C55E0012393400B404FD022F0030563
:10E2F0004D44AC689607370F0CFA07F606EA040897
:10E30000274CA04201D100240FE0264CA04201D1AD
:10E3100001240AE0244CA04201D1022405E0234C50
:10E32000A04201D1032400E00424BC40444512D1A2
:10E33000AC68B443AC601E4C25689D432560241D29
:10E3400025689D432560241D25689D432560241D67
:10E3500025689D432560FF2B01D8044601E000F1AC
:10E3600004044FEA820501D9A5F1200526680CFABC
:10E3700005F726EA07064FF0040707FA05F746EA0D
:10E3800007062660C46824EA0304C46002F101029F
:10E3900031FA02F3A6D1BDE8F0830000000001408D
:10E3A00000080140000C0140001001400014014031
:10E3B000000401402DE9F84FDFF8A491002409F191
:10E3C000040A0AF1040B23464FF00F080BF1040E68
:10E3D000BEE00127A7403A40BA4272D1DFF884C1BB
:10E3E0004D68A5EB0C0665452BD00DDC032D34D014
:10E3F00005DC35B3012D19D0022D2FD11BE0112DD5
:10E4000016D0122D2AD119E0B6F5881F19D006DCD6
:10E41000B6F5803F15D0B6F5801F1FD111E0B6F5D7
:10E42000001F0ED0B6F5041F18D10AE0CB6815E026
:10E43000CB681B1D12E0CB6808330FE0CB680C33B0
:10E440000CE08B682BB1012B4FF0080303D0476120
:10E4500004E0042302E0076100E00023FF2A01D862
:10E46000064601E000F104064FEA840501D9A5F152
:10E470002005376808FA05FC27EA0C0703FA05F5BA
:10E4800047EA050737604D68ED0060D5364DAE6947
:10E4900046F00106AE61AD6924F0030605F0010502
:10E4A0000095324D7719BE68A5072D0F08FA05FCB7
:10E4B00026EA0C06DFF8B8C0604503D14FF0000C27
:10E4C00017E044E0DFF8ACC0604502D14FF0010C2A
:10E4D0000FE0DFF8A4C0604502D14FF0020C08E065
:10E4E000DFF898C0604502D14FF0030C01E04FF017
:10E4F000040C0CFA05FC4CEA060CC7F808C04D6881
:10E50000D9F80060ED034D4601D5164300E096436F
:10E510002E604D68DAF80060AD03554601D516430C
:10E5200000E096432E604D68DBF80060ED025D462A
:10E5300001D5164300E096432E604D68DEF800607A
:10E54000AD02754601D5164300E096432E60641C6B
:10E550000A6832FA04F57FF43CAFBDE8F88F00009A
:10E5600000040140000011100010024000000140B2
:10E5700000080140000C014000100140001401405F
:10E580008068084000D00120704700000148806882
:10E590007047000000000020024881684268114472
:10E5A0008160704700000020074810B5016841F005
:10E5B00010010160032000F085F8002000F006F84B
:10E5C00000F024F8002010BD0020024070B50D4D71
:10E5D00004464FF47A716868B1FBF0F00A490968A3
:10E5E000B1FBF0F000F0BAFD48B9102C07D20022C0
:10E5F0002146501E00F046F800202C6070BD01201E
:10E6000070BD0000000000200C0000200C4808B580
:10E61000816941F001018161816901F0010100918D
:10E62000C16941F08051C161C069064900F0805064
:10E630000090486820F0E06040F00070486008BD3D
:10E64000001002400000014000280DDB00F01F0216
:10E65000012191404009800000F1E020C0F88011C4
:10E66000BFF34F8FBFF36F8F7047002809DB00F0B7
:10E670001F02012191404009800000F1E020C0F814
:10E6800000117047F0B40E4B1B68C3F30223C3F1B3
:10E690000704042C00D904241D1D072D01D20023DA
:10E6A00000E0DB1E012606FA04F56D1E0D409D40BC
:10E6B0009E40761E164045EA0601F0BC05F054BBAC
:10E6C0000CED00E0064A00F0070110684FF6FF036A
:10E6D000184040EA012003490843106070470000D9
:10E6E0000CED00E00000FA05BFF34F8F054801680C
:10E6F000054A01F4E06111430160BFF34F8F00BF91
:10E70000FDE700000CED00E00400FA0510B501463D
:10E7100027A086B01DC88DE81D0029A0294C0068DF
:10E7200004900020012922D0022938D010291CD1C0
:10E7300061682268D20118D5C1F38342C9031DF86C
:10E74000020009D5616804AAC1F34041515C1E4A28
:10E75000B2FBF1F1484301E01C49484361684902BA
:10E7600003D440000321B0FBF1F006B010BD216AD4
:10E77000C1F30122012A03D1890701D5D003F4E7AF
:10E78000022A05D1616A890702D549F64040ECE7C3
:10E79000032AEAD121688903E7D50D48E5E700F0AF
:10E7A00039F96168C1F38131491C4900DBE7000098
:10E7B00002030405060708090A0B0C0D0E0F1010C2
:10E7C0000102000000100240001BB70000093D00DC
:10E7D000366E01002DE9F84304460078344FC00737
:10E7E00052D0F8690025C00008D4F86940F0805084
:10E7F000F861F869012500F0805000902D4801680B
:10E80000C90511D40168804641F480710160FFF7A9
:10E81000BDFE064604E0FFF7B9FE801B642822D83F
:10E82000D8F80000C005F6D5386A10F4407020D042
:10E83000A18801F4407181421BD0386A1E4901222F
:10E8400020F440700A6000220A603862C00710D0CD
:10E85000FFF79CFE064641F2883807E0FFF796FE78
:10E86000811B414502D90320BDE8F883386A80073F
:10E87000F4D5386A616820F44070084338621DB1ED
:10E88000F86920F08050F8612078800705D5786815
:10E89000A16820F44040084378602078C00605D580
:10E8A0007868E16820F48000084378600020DBE7A6
:10E8B0000010024000700040400442422DE9F04741
:10E8C0000D46040067D0DFF81881D8F8000000F08A
:10E8D0000700A8420CD2D8F8001021F00701294304
:10E8E000C8F80010D8F8000000F00700A84252D184
:10E8F00020683C4E810712D5400703D5706840F46C
:10E90000E06070602078000703D5706840F46050C4
:10E9100070607068A16820F0F00008437060207893
:10E92000C00727D06068012810D03168022810D0B5
:10E93000890700292FDA716821F003010143716012
:10E94000FFF724FE074641F288390CE0316889035D
:10E95000EFE78901EDE7FFF719FEC11B494502D931
:10E960000320BDE8F0877068616800F00C00B0EB30
:10E97000810FF0D1D8F80010404601F00701A942FC
:10E980000BD9016821F0070129430160006800F0FC
:10E990000700A84201D00120E3E72078400705D511
:10E9A0007068E16820F4E060084370602078000738
:10E9B00006D57068216920F4605040EAC10070609B
:10E9C00000F038F87168084AC1F30311515CC8407F
:10E9D0000649086006480068FFF7F8FD0020C0E718
:10E9E0000020024000100240744A01080C00002080
:10E9F000000000200448054900684968044AC1F342
:10EA00000221515CC84070470C00002000100240F9
:10EA1000844A01080448054900684968044AC1F36A
:10EA2000C221515CC84070470C0000200010024019
:10EA3000844A010813A085B00FC88DE80F0015A007
:10EA4000154A00680490516801F00C00042804D0B5
:10EA5000082804D0114805B070471148FBE7C1F3FE
:10EA60008343C9031DF8030009D5516804AAC1F303
:10EA70004041515C0A4A5043B0FBF1F0EBE70949D1
:10EA80004843E8E702030405060708090A0B0C0DD2
:10EA90000E0F1010010200000010024000127A0058
:10EAA000001BB70000093D002DE9F84F04006FD0AE
:10EAB0002078BE4DC00747D06868C0F381000128A8
:10EAC00007D06868C0F38100022809D16868C003D4
:10EAD00006D52868800337D560680028E7D033E082
:10EAE0006068B0F5803F0BD010B1B0F5A02F11D009
:10EAF000286820F480302860286820F4802002E014
:10EB0000286840F480302860606888B1FFF73EFDD7
:10EB1000064609E0286840F480202860F0E7FFF707
:10EB200035FD801B642873D828688003F7D50BE077
:10EB3000FFF72CFD064604E0FFF728FD801B642844
:10EB4000F1D828688003F7D42078DFF86482800742
:10EB50004FF0010A4FF0000939D5686810F00C0F2A
:10EB600007D06868C0F38100022809D16868C00333
:10EB700006D42868800714D52069012808D110E040
:10EB80002069B0B1C8F800A0FFF700FD064605E017
:10EB900007E1FFF7FBFC801B0228C4D82868800728
:10EBA000F7D52868616920F0F80040EAC1002860C4
:10EBB0000DE0C8F80090FFF7E9FC064604E0FFF717
:10EBC000E5FC801B022823D828688007F7D420782A
:10EBD00000072CD57748A169D9B1C0F800A0FFF78C
:10EBE000D5FC064604E0FFF7D1FC801B02280FD8B5
:10EBF000686A8007F7D570484FF4FA510068B0FB97
:10EC0000F1F0009000BF0098411E0091FAD20EE092
:10EC10007CE0C0F80090FFF7B9FC064604E0FFF77F
:10EC2000B5FC801B022871D8686A8007F7D4207869
:10EC300040075BD5E8690027C00008D4E86940F0C8
:10EC40008050E861E869012700F0805000905B483F
:10EC50000168C90511D40168834641F480710160DF
:10EC6000FFF794FC064604E0FFF790FC801B642845
:10EC70004CD8DBF80000C005F6D5E06801280AD0C2
:10EC800008B1052813D0286A20F001002862286AFC
:10EC900020F0040002E0286A40F001002862E068E9
:10ECA00041F2883B88B1FFF771FC064609E0286A0B
:10ECB00040F004002862EEE7FFF768FC811B59452D
:10ECC0005BD8286A8007F7D50BE0FFF75FFC0646A4
:10ECD00004E0FFF75BFC811B59454ED8286A80078A
:10ECE000F7D41FB1E86920F08050E861E069A8B36B
:10ECF0006968C1F38101022946D00228484606D03E
:10ED0000C8F86000FFF742FC044639E035E04746AA
:10ED1000C8F86000FFF73AFC064604E0FFF736FC4F
:10ED2000801B022829D828688001F7D4206AB0F512
:10ED3000803F05D16868A16820F40030084368600E
:10ED4000D4E908010843696821F474110843686034
:10ED5000C7F860A0FFF71AFC044605E023E0FFF7C0
:10ED600015FC001B022808D828688001F7D51AE096
:10ED7000FFF70CFC001B022802D90320BDE8F88F26
:10ED800028688001F4D40EE00128F7D06868226A70
:10ED900000F48031914204D1616A00F4701088421D
:10EDA00001D00120EAE70020E8E70000001002405F
:10EDB00000004242800442420C00002000700040EB
:10EDC00070B5040004D00025A562606D10B105E0A7
:10EDD000012070BD2046256500F02CF802206065FA
:10EDE0002068016821F040010160D4E90101084375
:10EDF000D4E903121143084361690843218B01F4EC
:10EE000000710843E1690843216A0843A16A084385
:10EE100021680860A069042101EA10402168486067
:10EE20002068C16921F40061C161A56501206065A8
:10EE3000002070BD70472DE9F84F0446006D002694
:10EE40001D469046894601280DD04FF0010BC4F8AD
:10EE500050B0FFF79BFB0746606D4146B246012864
:10EE600004D002268EE00220BDE8F88FB9F1000F31
:10EE70006ED0B8F1000F6BD003206065C4F858A0C5
:10EE8000C4F83090A4F83480A4F83680C4F838A0D0
:10EE9000A4F83CA0A4F83EA0C4F844A0C4F840A044
:10EEA000A068B0F5004F04D12068026842F48042A7
:10EEB000026020680268520603D4026842F04002F1
:10EEC0000260E068B0F5006F606803D028B30129E4
:10EED00023D03FE008B101291BD1206B21680088B5
:10EEE000C86006E020688168890709D5216B098818
:10EEF000C160206B801C2063E08E401EE08608E02D
:10EF0000FFF744FBC01BA84202D3681C01D030E0CD
:10EF100075B3E08E0028E5D11FE0206B21680078F2
:10EF2000087306E020688168890709D5216B097894
:10EF30000173206B401C2063E08E401EE08609E0D8
:10EF4000FFF724FBC01BA84203D3681C02D010E0CB
:10EF500017E06DB1E08E0028E4D13A4629462046FC
:10EF600003F09AFB08B12020A065A06818B106E064
:10EF7000FFE7032606E02068C16880680090A06D66
:10EF800000B10126C4F854B03046C4F850A06BE775
:10EF90002DE9F84F0446006D01250A9E1F46924652
:10EFA0008B464FF0000801280CD001202065FFF7A8
:10EFB000EDFA8146606D616801280CD0B1F5827F61
:10EFC00007D102E00220BDE8F88FA16809B9042842
:10EFD00001D00220B4E0BBF1000F25D0BAF1000F40
:10EFE00022D00FB3606D042801D005206065002099
:10EFF000A065C4F838A0E787A787C4F830B0E786D3
:10F00000A7862064606420680168490603D401680B
:10F0100041F040010160E068B0F5006F606805D024
:10F02000F0B3012F43D079E0012089E008B1012F2E
:10F0300034D1206B21680088C860206B801C20635D
:10F04000E08E401EE08629E02068816889070DD5A2
:10F05000E18E59B1012D09D1216B0988C160206B66
:10F06000801C2063E08E401EE086002520688168B9
:10F07000C9070BD0E18F49B1C068A16B0880A06BB4
:10F08000801CA063E08F401EE0870125FFF77EFA19
:10F09000A0EB0900B04201D3701C50D1E08E00E01B
:10F0A00005E00028D0D1E08F0028CDD13CE0206BD6
:10F0B000216800780873206B401C2063E08E401E9E
:10F0C000E0862BE02068816889070DD5E18E59B173
:10F0D000012D09D1216B09780173206B401C20633D
:10F0E000E08E401EE086002520688168C9070BD0AD
:10F0F000E18F49B1C068A16B0870A06B401CA06390
:10F10000E08F401EE0870125FFF740FAA0EB0900E1
:10F11000B04202D3701C01D011E086B1E08E00280D
:10F12000D0D1E08F0028CDD14A463146204603F0A9
:10F13000B3FA38B120204FF00108A06508E00320A1
:10F14000804605E0A06818B92068C1688068009012
:10F150000120606500202065404634E710B5401E60
:10F16000B0F1807F01D3012010BD4FF0E024606139
:10F170000F21601704F0F8FD0020A0610720206136
:10F18000002010BD70B5C26B012A16D001250222E5
:10F19000C0E90F5202685368946823F070060B6848
:10F1A0004968334324F0800421435360026891602E
:10F1B00005640021C163084670BD022070BD10B512
:10F1C000040002D0206C10B106E0012010BD002028
:10F1D000E063204600F00AF802202064211D206828
:10F1E00004F006F801202064002010BD70470221C1
:10F1F000016401688A6802F00702062A03D00A68DF
:10F2000042F001020A600121016400207047016898
:10F21000CA6842F00102CA600068816801F0070113
:10F22000062903D0016841F0010101600020704708
:10F230000221016401680A6A41F211131A4207D1DE
:10F240000A6A9B101A4203D10A6822F001020A607E
:10F2500001210164002070470168CA6822F00102A0
:10F26000CA600068016A41F21112114207D1016AB5
:10F270009210114203D1016821F0010101600020C8
:10F2800070472DE9F0410446C06B0D46012837D088
:10F2900001260220C4E90F608AB3042A42D0206804
:10F2A000082A51D0D5E90027E968036A23F480537E
:10F2B0000362D0F81CC0036A2CF4407C4CEA072798
:10F2C0004FF6FF7C27F470470CEA0131394377038E
:10F2D00023F4005307EA02321A43C1610262206834
:10F2E000C16921F44061C1612068C169AA6841EA2D
:10F2F0000221C16126640020E063BDE8F08101E0E5
:10F300000220FAE7D5E90012EB68206804F0BAF8A9
:10F310002068816921F00C01816120688169AA68F7
:10F3200011430FE0D5E90012EB68206804F0E8F81B
:10F330002068816921F44061816120688169AA683F
:10F3400041EA02218161D5E7D5E9002C2F7B016AD2
:10F3500021F480710162C169036A21F0030141EA6D
:10F360000C0121F0F00C39074FF400774CEA1161E1
:10F3700023F4007307EA02221A43C1610262206883
:10F38000C16921F00C01C1612068C169AA681143FB
:10F39000AFE710B5040002D0206C10B106E00120E8
:10F3A00010BD0020E063204600F00AF8022020642F
:10F3B000211D206803F01CFF01202064002010BDE7
:10F3C0007047000010B50268044631B1042908D026
:10F3D000082922D00C2908D123E0D06840F002008F
:10F3E00002E0D06840F00400D0600122206803F001
:10F3F00035FF0E492068884203D1416C41F4004139
:10F4000041642068816801F00701062903D0016882
:10F4100041F001010160002010BDD06840F00800FB
:10F42000E2E7D06840F01000DEE70000002C014069
:10F4300010B50268044631B1042908D008292CD03F
:10F440000C2908D12DE0D06820F0020002E0D0683D
:10F4500020F00400D0600022206803F0FFFE134873
:10F4600041F2111221689310814209D1086A1042B9
:10F4700006D1086A184203D1486C20F40040486461
:10F480002068016A114206D1016A194203D101685C
:10F4900021F001010160002010BDD06820F00800BB
:10F4A000D8E7D06820F01000D4E70000002C01401D
:10F4B00070B50446C06B0D4601280BD00126022012
:10F4C000C4E90F6042B1042A18D0082A2AD00C2AB5
:10F4D0004DD139E0022070BD206803F0D7FE2068CE
:10F4E000816941F0080181612068816921F004018E
:10F4F0008161206881692A69114311E0206803F065
:10F50000F1FE2068816941F40061816120688169B0
:10F5100021F480618161206881692A6941EA0221C0
:10F52000816124E0206803F00BFF2068C16941F08D
:10F530000801C1612068C16921F00401C16120682E
:10F54000C1692A69114311E0206803F025FF206892
:10F55000C16941F40061C1612068C16921F4806121
:10F56000C1612068C1692A6941EA0221C16126643A
:10F570000020E06370BD10B5040002D0206C10B113
:10F5800006E0012010BD0020E063204600F00AF8EC
:10F5900002202064211D206803F02AFE012020643F
:10F5A000002010BD7047000010B50446006801221D
:10F5B00003F054FE09492068884203D1416C41F4AC
:10F5C000004141642068816801F00701062903D0E9
:10F5D000016841F001010160002010BD002C0140D4
:10F5E0000246002041B1042909D008290AD00C297B
:10F5F00001D11068006C70471068406B704710684C
:10F60000806B70471068C06B704770B50446C06B64
:10F6100001280CD001250220C4E90F50204603F038
:10F62000DDFE002128B125640120E16370BD0220C8
:10F6300070BD2068C26822F04002C2602068C268C3
:10F6400022F48042C26025640020E16370BD70B581
:10F6500004460068C16821F49071C1602068416966
:10F6600021F001014161206841694FF00005490620
:10F670000FD5416921F040014161606B48B185635C
:10F68000606BFEF7E9FB20B1606BFEF74FFC2028B2
:10F6900004D0E58520202064002070BD1020606427
:10F6A000032070BD7047000070B502680446106802
:10F6B000D168536910F00F0F50D003F0010501F429
:10F6C000907635435DD0C20705D0CA0503D5626C7C
:10F6D00042F001026264420705D5DA0703D0626C8A
:10F6E00042F002026264820705D5DA0703D0626C39
:10F6F00042F004026264020705D5DA0703D0626CA7
:10F7000042F008026264626C002A33D0800604D59D
:10F71000880602D5204603F0C9FF20684069616C65
:10F72000C0F38010090700D428B3204603F07CFF03
:10F730002068416949061AD5416921F040014161BB
:10F74000606BA0B11A498163606BFEF7A5FB0028CE
:10F7500010D0606B816BBDE870400847830610D500
:10F760008B060ED52046BDE8704003F09FBF2046B3
:10F77000FFF798FF70BD2046FFF794FF00206064FC
:10F7800070BD030606D50B0604D52046BDE87040C3
:10F7900004F032B84006F3D54806F1D5D1682046CA
:10F7A00021F04001D1602021E16300F0E7F870BD55
:10F7B0003735010870B5040003D0E06B002510B1A7
:10F7C00005E0012070BD2046A56300F01FF824204D
:10F7D000E0632068C16821F40051C160204603F055
:10F7E000AFFF2068016921F49041016120684169FF
:10F7F00021F02A0141612068C16841F40051C160D3
:10F8000065642020E0632064002070BD7047000024
:10F8100037B50446006C82B01346202836D1039ACF
:10F820008AB383B3A06B012830D00120A262A06309
:10F83000A3850025656422202064616B1448C8629A
:10F84000616B14480863616B13484863606B8563A0
:10F850002168606B091DFEF743FC20680168416860
:10F860000091A563C16841F48071C160206841695D
:10F8700041F0010141612068416941F0400141616D
:10F88000002005B030BDFFE70120FAE70220F8E7CD
:10F890008D350108C73501084735010870B503F0FB
:10F8A00013F804002BD02068FFF7D1FEA068006891
:10F8B000406804F58671C0F5807082B204F503706B
:10F8C000A4F80E230E460546FCF73EFCB4F80E13D2
:10F8D000D4F814034FF480720844C4F8140331467A
:10F8E0002068FFF795FFB4F80E13012907D9D4F863
:10F8F0001823002A03D02846BDE87040104770BD89
:10F9000070470000F7B50446C06B20282DD101993F
:10F9100049B342B3A06B012827D001202162A06324
:10F92000A284E284002565642120E063236B1048F3
:10F93000D862236B0F481863236B0F485863206B02
:10F94000134685632668206B321DFEF7C9FB2168CC
:10F950006FF040000860A5632068416941F08001B4
:10F9600041610020FEBD0120FEBD0220FEBD000061
:10F97000D1350108FF3501084735010810B502F0FF
:10F98000A3FF040010D0002103F03EFE4FF480726C
:10F9900004F586712068FFF73BFFD4F81C030028AC
:10F9A00002D0BDE81040004710BD7047FEE70000E0
:10F9B00010B50C4940F271240A68C1E900020B69D4
:10F9C000821AC3EB8313624303EB4212CB681344E6
:10F9D0009A11A3EB8213C1E90203C1E904208A61F1
:10F9E00010BD0000D80C00200448002101604160D7
:10F9F0008160C1600161416181617047D80C002064
:10FA0000024A10605060116190607047D80C00206D
:10FA10002DE9FE4F7549754A4FF00008D1F82610C0
:10FA20000291461AD2F81A1052F80E0F44F62065C9
:10FA3000A1EB00031469994601EB000A34D06B492D
:10FA40000A469068D2F81A201318101A83460193B8
:10FA5000CCB30846002E50F8027F0069009066DDA6
:10FA6000002C7CDDBC427BDC8A462046FCF707FC90
:10FA70000146FCF794FB0099FCF791FBFCF708FCAE
:10FA80008642524640DDBC420DDA019890FBF5F10A
:10FA900090FBF5F3214405FB1300C2F81E10C2F8D9
:10FAA0001A00B9426ADA8CE0504AD2F81600414294
:10FAB0008C4209DB844207DC42F81A8FC2F80480CA
:10FAC000C2F808807DE011E0002C01DD18461CE042
:10FAD00077DA9AFBF5F19AFBF5F3091905FB13A008
:10FAE000C2F81E10C2F81A001CD56AE0002E00DD14
:10FAF000184690FBF5F2C1F81E2090FBF5F205FBCD
:10FB00001200C1F81A005CE0484690FBF5F190FB4A
:10FB1000F5F3214405FB1300C2F81E10C2F81A00C9
:10FB200000294EDC42F81A8FC2F8048049E0002C0C
:10FB300029DA7F42BC4234DB89462046FCF79FFB32
:10FB40000146FCF72CFB0099FCF729FBFCF7A0FB16
:10FB5000714281424A46BCDDBC4232DD01E020E018
:10FB600011E09BFBF5F19BFBF5F3214405FB13B082
:10FB7000C2F81E10C2F81A00B94222DCC2F81A807C
:10FB8000C2F81E701DE099FBF5F299FBF5F32244D3
:10FB900005FB1390C1F81E20C1F81A00002A0CDDE5
:10FBA0000FE09AFBF5F29AFBF5F3121905FB13A08F
:10FBB000C1F81E20C1F81A0003D441F81A8FC1F809
:10FBC00004800A48029BD0F8221050F81E2F1144DE
:10FBD00091FBF5F4234491FBF5F405FB14118360CC
:10FBE0004160C3600261BDE8FE8F00003C0C002054
:10FBF00070B50E4C208810B90D4800F045F8E0882B
:10FC00000C4D10B9284600F053F8A08910B92846C9
:10FC100000F01CF84FF4484044F8160F00206060D4
:10FC2000A060E06020616061A06170BD3C0C0020BC
:10FC30000010270000204E00034A002342F81A3F1C
:10FC400051609360D06070473C0C002010B50028D4
:10FC500000DA40420A4A411E0A4C91420CD8C4F8CC
:10FC60000E00FCF70CFB01464FF07C50FCF7C9FA84
:10FC7000C4F81200012000E00020A08110BD0000A7
:10FC8000FF3F0D033C0C0020002800DA4042064BE9
:10FC9000421E06499A4203D8C1F80200012000E042
:10FCA0000020088070470000FF0F27003C0C002058
:10FCB000002800DA4042054B421E05499A4202D80C
:10FCC0008860012000E00020C8807047FF3F0D03DE
:10FCD0003C0C002010B5002211461720FEF7D2FC84
:10FCE000002211461D20FEF7CDFC02210022C81E75
:10FCF000FEF7C8FC002203210E20FEF7C3FC002201
:10FD000003210F20FEF7BEFC00220321BDE81040B6
:10FD10002520FEF7B7BC0000054901200870054802
:10FD200044F620610068B0FBF1F0FFF717BA00005D
:10FD3000080100200C000020FEE7000070B52549F6
:10FD4000254B264C4A425D426642002821DA884211
:10FD500001DD002070BD984205DD10444FF4837131
:10FD6000484300150FE0A04206DD2844C0EB001018
:10FD7000C0EBC0001A4904E030443421484318491C
:10FD80005A3901EB2050164982398842E2DA084696
:10FD900070BD9042DDDBA84205DA08444FF4837160
:10FDA0004843001510E0B04207DA1844C0EB0010D9
:10FDB000C0EBC0004FF4967104E020443421484366
:10FDC0004FF4C37101EB20504FF4D7718842DEDC51
:10FDD00070BD00006079FEFFE029ECFF406EDEFFA1
:10FDE000D4FEFFFF2DE9F047F749F84CF84E0A78AA
:10FDF000608800253AB146F80E0F7060B060F06080
:10FE00000D70BDE8F087D6F80E10C6F81210C6F8CF
:10FE10000E00401AB0F5C84F02DDA0F5484004E0DE
:10FE200010F5C84F01DA00F5484056F8161F71600A
:10FE300008443060401AF26840F271214843C2EB36
:10FE40004212B16802EB401001444811F060A1EB8E
:10FE50004011B160FFF772FF306156F8181B014482
:10FE600046F8161B56F81209411A46F82E1B36F8AA
:10FE7000601971B9B6F84E1059B9217949B1B6F87F
:10FE8000501059B100F0DCF97565B56500F088FDDA
:10FE900031E000F0D5F97565B5651DE0D6F80A10BA
:10FEA000222920D00BDC102916D003DC01B3012954
:10FEB00021D114E020291BD021291CD10FE03129A8
:10FEC0000DD004DC232913D0302914D110E03229BD
:10FED00009D033290FD10BE000F0CCFD0BE0B06C62
:10FEE000FDF7ACF907E0B6F94C00FDF79BF802E02E
:10FEF000B16CFDF7FFF8D6F80A10D6F8020001241D
:10FF000081422AD0C6F80A00222819D00BDC10281A
:10FF100016D003DCA0B101281FD111E020280FD09A
:10FF200021281AD10CE031280ED004DC232807D078
:10FF3000302812D106E0322808D033280DD107E04E
:10FF4000002006E0012004E0022002E0032000E09F
:10FF5000042002F0ADFDA6F85240D6F80A0022288F
:10FF600026DD9C4F31280AD004DC232820D03028FD
:10FF70001ED104E0322802D0332819D10AE002F061
:10FF800089FD7868C6F83600B868C6F83A00B889BE
:10FF9000F08707E002F07EFDD6F836007968084465
:10FFA000C6F83600B87BA6F84000F87BA6F84200F9
:10FFB000D6F83A008849884202DC4942884201DA90
:10FFC000C6F83A10B6F93E0040F6B837B84201DD3F
:10FFD000F78703E08149884200DAF187B6F84E00DE
:10FFE00010B1B6F84000D0B1B6F8500010B1B6F874
:10FFF0004200A0B1B6F8520038B3A6F8525000F053
:020000040801F1
:100000001FF900F02FF9D6F80A0022282AD009DCBF
:10001000102835DD202819D0212831D11DE0A6F87F
:100020005240EAE7312818D004DC232807D03028D2
:1000300026D10BE0322815D0332821D118E0D6F88C
:100040002210D6F82E0000F02DFA19E0D6F8221072
:10005000D6F82E00FFF7F0FD12E0D6F8220002F0ED
:1000600093FF0DE0B6F8580000B2FDF7BDF907E0C8
:1000700056F8221FF068FFF7C3FCF0687061223E5B
:10008000DFF85C81D6F80A00DFF85891DFF858A154
:10009000222821D00BDC102826D003DCA0B10128B7
:1000A00022D114E0202840D021281DD147E031285A
:1000B00045D004DC23282DD0302815D135E0322856
:1000C0000AD0332810D141E000F02CF90CE000F008
:1000D00041F909E0B06407E0B6F93E00FDF71CF90C
:1000E000BAF81400A6F84C00B6F84000A6F84E0086
:1000F000B6F84200A6F85000B16D002900DA494276
:10010000D6F80A00394B4FF4205C222827D0322839
:1001100025D032E0D6F83A10D6F8360000F022F9B1
:100120003348016B7164406BD4E7D6F83600FFF7B3
:100130006FFCD8F82A107164D8F82E00CAE7D6F8F8
:100140003A0002F0B9FED9F81400C3E7D6F8360039
:10015000FFF72EFC2748416971648069BAE761B1F5
:10016000D6F82220002A00DA5242624505DAF26D02
:100170009A4215D3A6F8604009E0B94206D1D6F8F4
:100180002220002A00DA52426245F0DBF565B942CE
:100190000DD1D6F86210994205D3A6F866400AE060
:1001A0003232F265F3E73231C6F8621003E0C6F886
:1001B0006250A6F86650102804D0B6F86010D9B185
:1001C00004201DE0B5661CE6D40000201A000020C3
:1001D00068080020C00400200010270048F4FFFF3A
:1001E0003C0C00206E0C0020860C002040420F00CA
:1001F000A00C0020D80C0020B6F8661011B1032026
:10020000B066FEE50221202804D021280DD0222846
:100210000FD006E0706CD6F83620904203D1B06C57
:1002200008B9B466EDE5B166EBE5B06CD6F83A20F6
:1002300003E0B6F94C00B6F93E209042F3D1F0E766
:1002400007490020C1F82600C1F82A00C1F81E00A5
:100250003231C862086348623A31086048607047CA
:10026000F007002002480021C165A0F86010704727
:1002700068080020224A10B5108810B9332000F019
:1002800041F8D08810B9012000F044F81020C2F8DD
:100290000A000020C2F80E0042F8120F5060906071
:1002A000D06010615061D0611062506290629085A0
:1002B000D0851086C2F83200C2F836005087908789
:1002C000D087A2F84000C2F84200C2F84600C2F847
:1002D0004A00A2F84E001065A2F85400C2F8560079
:1002E000FCF764FFFCF7B2FEFFF782FC02F036FE7B
:1002F000FDF764F800F0B8F8BDE81040FFF774BBF4
:10030000680800200249C1F80200012008807047F7
:1003100068080020024908810120C8807047000059
:10032000680800200A4B98681A68C0EB0011C1EBFE
:10033000C10102EB8101CA15A1EBC251C3E9001250
:1003400003F10C014B6C1A44C1E911207047000005
:100350005C080020024802490C31806888647047BC
:100360005C0800202DE9F84F3D4F0D463946D7F87F
:1003700018C0D1E908640022D1F82C8044F6206925
:10038000AC4502D1F96981421CD03A61C7E90650F7
:10039000A0EB080092464000FBF771FF0090281B7D
:1003A000FBF76DFF83466019FBF769FF5946FBF7C2
:1003B000F6FE0099FBF725FFFBF76AFFF86087F868
:1003C00014A02FE027493869884202DB01203875E4
:1003D00003E032303861387D20B32148002C40687A
:1003E0000FD010DDA6EB0000494690FBF1F323444B
:1003F00090FBF9F409FB1400C7E90803002B0EDD9C
:100400001CE03A621AE03044494690FBF1F31B19B4
:1004100090FBF9F409FB1400C7E908030ED43A6213
:100420007A620BE0F8684946304490FBF1F22244CE
:100430007A6290FBF9F209FB12003862D7E90910E1
:1004400008444A4690FBF2F404EB080390FBF9F4ED
:1004500009FB1400C7E90A03C7E90C31BDE8F88FAE
:10046000A00C0020400D030010B50C4C207810B9F2
:100470000B4800F023F8207A10B9C82000F030F8BB
:100480000020E06020612075A061E0612062606270
:10049000A062E0622063606310BD0000A00C002039
:1004A00000204E00044A002313611375C2E908318D
:1004B000C2E90A3070470000A00C0020002800DAD2
:1004C0004042054B421E05499A4202D8486001202D
:1004D00000E0002008707047FF3F0D03A00C0020D3
:1004E000A0F132024CF21E3304499A4202D84881EC
:1004F000012000E00020087270470000A00C0020DE
:100500007047704710B5094B094848F6CC54198814
:10051000018042686143C2EB421202EB113149098A
:100520004160598841800021816010BDF8010020A0
:10053000F40C0020F0B589B00025364E05950695DF
:10054000B06940F00400B061B06903A900F0040094
:1005500007900320039004902F48FDF72BFF304CA9
:100560002E48C4E900058020C4E902504700C000BD
:10057000C4E904702020A0614FF44050E06120469F
:10058000FDF780FD08B1FCF7E5FF2548303804622F
:10059000A062009501950295B16941F40071B161C5
:1005A000B169012401F4007107911E4945610160A0
:1005B0004FF460210226C161C0E90346C0E901573A
:1005C000FDF73AFB08B1FCF7C5FFCDE9005414482C
:1005D0000725694630380295FDF7AEFA08B1FCF7F9
:1005E000B9FF0F48CDE90046694630380295FDF75E
:1005F000A3FA08B1FCF7AEFF09483038FDF73CFA22
:10060000074902224831A1F17800FDF7A3FB09B0A8
:10061000F0BD000000100240000801400800024048
:10062000B001002000240140084808B5416941F0AC
:1006300001014161406900F0010000900E20FEF7C9
:1006400014F8BDE808400F20FEF70FB80010024074
:10065000F0B585B00025124C01950395A06940F0D6
:100660000800A061A0690F4F00F008000490A014DA
:1006700001260090694602963846FDF79BFEA06968
:1006800040F00800A061A069694600F008000490ED
:1006900004208DE861003846FDF78CFE05B0F0BD02
:1006A00000100240000C01402DE9F04786B02D48B3
:1006B00000240294816941F004018161816901F0A3
:1006C00004010491816941F004018161816901F0B3
:1006D00004010491816941F004018161816901F0A3
:1006E00004010491816941F0040181618069202243
:1006F00000F0040004901C480260102707604FF0CF
:100700000808C0F800804FF00409C0F800900125E7
:10071000DFF854A0CDE900250326AAF1140A6946A2
:1007200050460396FDF746FE00970396CDE9015427
:1007300069465046FDF73EFECDF800800396CDE9B0
:10074000015469465046FDF735FECDF800900396FA
:10075000CDE9015469465046FDF72CFE06B0BDE8D0
:10076000F0870000001002401408014000B585B079
:10077000002002900C48816941F004018161806988
:100780000A4900F0040004904FF400400860009013
:100790000120019002200390044869461038FDF7BB
:1007A00009FE05B000BD0000001002401008014025
:1007B00000B585B0002002900B48816941F010011E
:1007C000816180694FF4804100F010000490074877
:1007D0004161009101210191022103916946FDF7D8
:1007E000E9FD05B000BD000000100240001001400E
:1007F0002DE9F04385B0224C00250295A06940F018
:100800000400A061A0691F4E00F0040004902015B0
:1008100030600127DFF86C90CDE900074FF0020847
:10082000A9F114096946CDF80C804846FDF7C2FDD0
:10083000A06940F00400A061A06900F004000490E9
:1008400060153060CDE90007CDE902586946484699
:10085000FDF7B0FDA06940F00400A061A06900F0C0
:1008600004000490A0153060CDE90007CDE90258DE
:1008700069464846FDF79EFD05B0BDE8F0830000DF
:10088000001002401408014010B51720FDF7DCFEEF
:1008900080210448FDF71EFDBDE8104001210248FB
:1008A000FDF718BD00080140000C014030B585B0CF
:1008B0000024144D019402940394A86940F00400AC
:1008C000A861A869694600F0040004900120009026
:1008D0000D48FDF76FFDA86940F00400A861A86904
:1008E000694600F004000490802000900748CDE99C
:1008F00001040748FDF75EFD1720FDF7B6FE05B0C1
:1009000030BD000000100240000C0140000031101A
:100910000008014010B580210448FDF7DBFCBDE86C
:10092000104001210248FDF7D5BC0000000801403D
:10093000000C014010B586B00024124801940294C6
:100940000394816941F004018161816901F004012E
:100950000491816941F0040181618069694600F078
:1009600004000490012000900748FDF723FD80203B
:10097000CDE90004694605480294FDF71BFD06B069
:1009800010BD000000100240000C014000080140B2
:1009900010B5FFF789FEBDE8104000F089B90000EE
:1009A000094900B500208880891D88800146FCF730
:1009B000A9FC064820210160102101600821016086
:1009C0000421016000BD000020000020100801404B
:1009D00030B5254CC0F3090202F58070A51F234BEA
:1009E0002280C0F30900288033F91000688033F9B1
:1009F00012206280002900DA494241F2DB33594378
:100A0000C1F30B31002800DA40424843C0F30F30F5
:100A1000A880002A00DA52424A43C2F30F31A18073
:100A2000FCF770FC1249B5F9025020221023081F70
:100A3000002D02DD02600B6004E001DA0A6000E0D4
:100A400002600360B4F902404FF008034FF0040263
:100A5000002C02DD03600A6030BD01DA0B6000E0AB
:100A60000360026030BD0000260000208C4A0108AF
:100A700014080140094900B500208880891D88803C
:100A80000146FCF73FFC064820210160102101606F
:100A9000082101600421016000BD00002000002049
:100AA0001408014010B501F049FD06480549891DAB
:100AB0004088A1F10A020880126832F810004880CC
:100AC00010BD00001400002070B500F01BF8FFF707
:100AD000E9FF0B4C0120A4F10A01207100200968F4
:100AE0004FF6FF7203464FF4804531F8106096428E
:100AF00000D12371401C80B2A842F6D370BD000023
:100B00001A000020054810B5002101804180FFF740
:100B10002DFEBDE8104000F003B8000014000020D6
:100B20002DE9F04186B0314C00250295A06940F0D6
:100B30000800A061A06900F008000490A06940F0DE
:100B40000800A061A06900F008000490A06940F0CE
:100B50000800A061A069022600F0080004900820A7
:100B6000CDE90006DFF888800327694603974046F1
:100B7000FDF720FC2020CDE900066946039740469A
:100B8000FDF718FC1027CDE900756946404602952F
:100B9000FDF710FC1749486840F0E06040F00100A4
:100BA0004860A06940F48050A061A069124900F437
:100BB00080500490114801604FF48271C0E9011522
:100BC000E114C0E903160121416149028161C0E9D4
:100BD00007750A214562C0E90A51FEF7F1F80028BD
:100BE00001D0FCF7B7FC06B0BDE8F0810010024070
:100BF000000C0140000001400030014028020020AC
:100C00002DE9F04186B0264C00250295A06940F000
:100C10000800A061A06900F008000490A06940F0FD
:100C20000800A061A069022700F0080004904FF4BA
:100C30000050CDE90007DFF86C8003266946039673
:100C40004046FDF7B7FBB803CDE9000769460396B8
:100C50004046FDF7AFFBE06940F48040E061E069A9
:100C6000114900F480400490104801604FF48271F3
:100C7000C0E90115C56061150561C0E9055108218C
:100C8000C0E907150A214562C0E90A51FEF798F844
:100C9000002801D0FCF75EFC06B0BDE8F081000042
:100CA00000100240000C0140003800408402002087
:100CB0002DE9F0418EB03B4C00250995A06940F02C
:100CC0000800A061A06900F008000D90A06940F044
:100CD0000800A061A069032700F008000D90E0144F
:100CE00002260A97CDE90706DFF8BC8007A940462F
:100CF000FDF760FB20150A97CDE9070607A94046D6
:100D0000FDF758FB2949486820F4407040F0E06046
:100D100040F4007048600B951C2168460C95FBF769
:100D20002CFAE06940F00100E061E069A10400F004
:100D300001000D901E48C0E9001540F2FF31C0E9E6
:100D4000025105618561FEF716FC08B1FCF702FC53
:100D50000B950BA916480C95FEF714FA08B1FCF791
:100D6000F9FB6020CDE9000502950C226946104888
:100D70000495FEF79DFB08B1FCF7ECFB08226946E1
:100D80000B48FEF795FB08B1FCF7E4FB0C21084883
:100D9000FEF70AFC08210648FEF706FC0EB0BDE887
:100DA000F081000000100240000C014000000140F2
:100DB000E002002010B50448FEF73AFABDE8104002
:100DC00040210248FDF786BA2403002000080140B4
:100DD00030B58DB00024254D069407940894A86979
:100DE00040F00400A861A86905A900F004000B9078
:100DF000402005901E48FDF7DDFA14216846FBF7F8
:100E0000BCF909940A94E86940F00200E861E869D5
:100E1000184900F002000B901748C0E900144FF683
:100E2000FF71C0E9024104618461FEF7C8F908B1AD
:100E3000FCF790FB072000905020CDE9010404202E
:100E4000049069460C48FEF7E0FB08B1FCF782FB12
:100E5000099409A908480A94FEF794F908B1FCF727
:100E600079FB0548FEF7C3F90DB030BD0010024014
:100E700000080140000400402403002010B5084889
:100E8000FEF7EAF904210648FEF7D2FA00210448E9
:100E9000FEF7CEFABDE8104040210248FDF71ABA2D
:100EA000240300200008014070B590B000243D4D9F
:100EB0000C940E94A86940F00400A861A86901266A
:100EC00000F004000F9040200B900BA90D963648BF
:100ED000FDF770FA142106A8FBF74FF9009401946E
:100EE0000294039404940594E86940F00200E861D8
:100EF000E8692E4900F002000F902D48016047215B
:100F0000C0E901144FF6FF71C0E903148461FEF7D4
:100F100056F908B1FCF71EFB2548FEF73AFA08B16E
:100F2000FCF718FB042006905020CDE9070406A921
:100F30001F480A94FEF769FB08B1FCF70BFB00940D
:100F400069461B480194FEF71DF908B1FCF702FB46
:100F5000CDE902460494002202A915480594FEF743
:100F600090F908B1FCF7F6FA0220029003900422EF
:100F700002A90F48FEF785F908B1FCF7EBFA1D202E
:100F8000FDF773FB0A48FEF753F900210848FEF706
:100F900019FA04210648FEF715FA0548FEF737F955
:100FA00010B070BD00100240000801400004004075
:100FB00024030020F0B41C481A494FF4C0640160B7
:100FC00000F1D801CA6842604FF48052D1F8026043
:100FD000951053000021062E22D2DFE806F003060A
:100FE000080C10158160C16007E0056100E0046134
:100FF000C0E902210CE0C0E90213016108E000F140
:10100000080484E82C0003E000F1080585E81C00D2
:101010000C22C0E90521C161F0BC0348FEF7CABB40
:10102000F0BC704700380140680300202DE9F04310
:10103000414C85B0208810B9002000F097F86089F5
:1010400018B94FF4E13000F081F8D4F80600C4F884
:1010500002002069394E4FF00008E060CDF80880AA
:10106000B069444640F00800B061B06900F0080083
:101070000490B06940F00800B061B069304D00F0F4
:10108000080004904020009002200190032003906B
:1010900069462846FDF78EF9802701200097CDE9A3
:1010A000014069462846FDF785F92649486840F021
:1010B000E06040F0040048601F4D2348903D4FF42D
:1010C000405901C5102091C51B4845F8104990387A
:1010D0006C61C5E90649FCF7D5FF08B1FCF73AFA9F
:1010E000154C1948D83C14302563AC6204F19005C6
:1010F000C5E90008C5E90287C5F810802020C5F8B9
:101100001480C5E906092846FCF7BCFF08B1FCF7C6
:1011100021FA6563AC62B06940F48040B061B069A7
:1011200000F480400490FFF745FF2520FDF79DFA6D
:1011300005B0BDE8F083000040040020001002402C
:10114000000C01400000014044000240054BA0F5A6
:10115000165205499A4202D80861012000E0002099
:101160004881704750D0020040040020094960B116
:1011700001280AD0022808D0032806D0042804D069
:10118000052802D0002008807047C1F80600012021
:10119000F9E70000400400202DE9FE4306464A48D6
:1011A000FCF764FA494F0124F86807282BD2DFE8DE
:1011B00000F004081A1E22262600009444A301947D
:1011C00002E0009448A30194002204213E48FCF769
:1011D00002FC796803204A4D052946D2DFE801F078
:1011E000171D383B3E00009446A30194ECE70094A1
:1011F0004AA30194E8E700944EA30194E4E7009425
:1012000052A30194E0E7009456A30194DCE7CDE9F2
:101210000004082259A3002102E0697B5CA31FE0BF
:101220002948FCF7D8FB5F484FF008080079F8B16F
:1012300000945DA31822162123480194FCF7CBFBF0
:1012400000215D4ACDF80080CDE90121082320E08E
:10125000697B5AA304E0697B5DA301E0697B61A31C
:101260000822CDE900010021DAE7697B62A3F7E7F4
:10127000687B4DA3CDE90040182216211248FCF7E7
:10128000AAFB4D4A687B0832CDF80080CDE90120E9
:101290000823182264210C48FCF756FB0A4801F089
:1012A000C6FA0120FBF7ACFB062800D13C700220F7
:1012B000FBF7A6FB062805D1B068002802D05349E9
:1012C00048600474BDE8FE83240D0020D40800208B
:1012D00020202020202044697361626C652020203A
:1012E00020202020000000002020456E636F6465F0
:1012F000725F4175746F43616C69202000000000CB
:10130000240F00202020466F72776172645F4D6564
:1013100061737572652020200000000020202020CD
:10132000526576657273655F5265742020202020B7
:101330000000000020202020526576657273655FF2
:1013400047617020202020200000000020205265EE
:1013500076657273655F4D656173757265202020D7
:1013600000000000202020202020496E76616C695A
:1013700064202020202020200000000020202020A9
:101380004E6F5F4572726F722020202000000000B7
:10139000204572726F725F4176655F4469722020EA
:1013A000000000001A00002063616C6962726174C1
:1013B000696F6E3A00000000986C01084572726F08
:1013C000725F4176655F436F6E74696E0000000066
:1013D0004572726F725F50686173655374657020F7
:1013E000000000004572726F725F416E616C795F40
:1013F0005175616E000000002020202020496E768B
:10140000616C69642020202000000000D8000020CA
:10141000FEB507462C48FCF729F9012400942BA3BC
:101420000022214628480194FCF7D5FA0B25CDE986
:101430000054294E02940022B3683D212248FCF753
:101440004DFA009425A3082201211F480194FCF7BE
:10145000C2FACDE900540294F36808223D211A48EB
:10146000FCF73CFA009420A31022012116480194B5
:10147000FCF7B1FACDE900540294336910223D2102
:101480001148FCF72BFA00941AA3182201210E48E8
:101490000194FCF7A0FACDE9005402947369182274
:1014A0003D210948FCF71AFA074801F0C0F902206B
:1014B000FBF7A6FA062805D1B868002802D0104923
:1014C00048600474FEBD0000240D00206463655F65
:1014D0006B702020203A0000220800206463655FC2
:1014E0006B692020203A00006463655F6B762020E2
:1014F000203A00006463655F6B642020203A00009E
:10150000D8000020FEB507462448FCF7AFF80124B8
:10151000009423A30022214620480194FCF75BFAA3
:101520000B25CDE90054214E0294002256F8063FC7
:101530003D211A48FCF7D2F900941DA3082201218D
:1015400016480194FCF747FACDE9005402947368F9
:1015500008223D211148FCF7C1F9009417A310227D
:1015600001210E480194FCF736FACDE900540294AB
:10157000B36810223D210948FCF7B0F9074801F093
:1015800056F90220FBF73CFA062805D1B868002876
:1015900002D00D4948600474FEBD0000240D0020F7
:1015A0007069645F6B702020203A0000F007002013
:1015B0007069645F6B692020203A00007069645F85
:1015C0006B642020203A0000D8000020FEB50546BC
:1015D0001B48FCF74BF8012400941AA30022214673
:1015E00017480194FCF7F7F90B26CDE90064184F72
:1015F00002940022D7F83A303D211148FCF76EF9E9
:10160000009414A3082201210D480194FCF7E3F98A
:10161000CDE900640294BB6D08223D210848FCF727
:101620005DF9074801F003F90220FBF7E9F9062804
:1016300005D1A868002802D0094948600474FEBD9D
:10164000240D0020676F616C5F637572723A000051
:10165000680800206F75745F63757272203A00002D
:10166000D80000202DE9FE4F002781460774FA4874
:10167000FBF7FCFFF9480826CDE90060334600225D
:1016800001210297F448FCF75FF9F4480823083079
:10169000CDE90060002270210297EF48FCF754F971
:1016A000EF48F04CDFF8B4B3D0F80200A168DFF8DF
:1016B000B8A30BF1100B884208D1CDE9006B0125CE
:1016C000082300227821E44802970AE0E3489AF8C8
:1016D0000D5018300096CDE901050823002278212D
:1016E000DD48FCF731F9A046A0680124222878D013
:1016F0000BDC10286FD003DCA0B101281CD113E053
:1017000020286AD0212817D169E0312871D004DC63
:10171000232868D030280FD167E032286BD03328D7
:101720000AD16AE0D1A300E0D5A300220921CA486A
:10173000CDE90045FCF74FF9C948B0F84E00002844
:101740005DD09AF80D005546CDE90040D1A318228E
:101750000021C148FCF73FF9C049687B1831009669
:10176000CDE90110082318221E21BB48FCF7ECF834
:10177000BB48B0F86000002851D09AF80D005546DB
:10178000CDE90040C5A318222D21B348FCF723F969
:10179000B248697B18300096CDE901010823182270
:1017A0004B21AD48FCF7D0F8BE480079002846D060
:1017B0000094BDA318225A21A7480194FCF70BF905
:1017C000CDE9006B082318227821A34802974BE04B
:1017D00007E000E001E0B6A3A7E7BAA3A5E7BEA330
:1017E000A3E7C2A3A1E7C6A39FE7CAA39DE700E0C2
:1017F00001E0CDA399E7D1A397E7D5A395E700949E
:10180000A4A31822002194480194FCF7E4F8CDE940
:10181000006B082318221E218F480297A6E7009428
:101820009EA318222D218C480194FCF7D4F8CDE911
:10183000006B082318224B2187480297B2E79AF8D9
:101840000D005546CDE9004097A318225A21824841
:10185000FCF7C1F88149687B18310096CDE9011089
:101860000823182278217C48FCF76EF87C4D032170
:101870000B26D5F80A00222853D007DC102812D0F6
:1018800021DD20286CD021281DD12AE0312828D044
:1018900004DC23280FD0302815D161E0322840D055
:1018A000332810D15CE0AFA306E010223D216A4846
:1018B000FCF714F807E0AFA3CDE9001408220021DB
:1018C0006548FCF788F8644800F0B1FF0120FBF799
:1018D00097F810264FF0200A4FF0210B05285FD013
:1018E0007DE00094A7A3082201215B480194FCF746
:1018F00072F8CDE900640294D5F83A3008223D210F
:101900005548FBF7EBFF0094A1A310220121524898
:101910000194FCF760F8CDE900640294D5F8223018
:10192000C3E700949DA3082201214B480194FCF7D2
:1019300052F8CDE900640294B5F93E3008223D2109
:101940004548FBF7CBFF009497A3102201214248A2
:101950000194FCF740F8CDE900640294AB6DA4E774
:10196000009494A3082201213B480194FCF733F82A
:10197000CDE900640294D5F8363008223D2136487E
:10198000FBF7ACFF00948EA3102201213248019492
:10199000FCF721F8CDE900640294D5F82E3084E7F5
:1019A000D8F80800222829D00BDC102820D003DC2E
:1019B000D8B1012811D118E020280ED021280CD14F
:1019C00019E0312821D004DC23281AD0302804D192
:1019D00019E032281BD033281BD0C8F80860022039
:1019E000FBF70EF8052818D0F7E0C8F80870F6E7FE
:1019F000C8F80840F3E7C8F808A0F0E7C8F808B04E
:101A0000EDE7222006E0232004E0302002E0312030
:101A100000E03220C8F80800E1E7D8F808002228E2
:101A200013D009DC102811D001DC68B9DBE02028D4
:101A30000DD0212808D1DFE0312809D009DC232886
:101A400008D0302800D1DDE0C5E0D7E0CEE0D0E01E
:101A5000DAE0BBE0D4E00000240D0020886C01082F
:101A600068080020D8000020240F0020446562751B
:101A700067204C6F636174696F6E20202000000046
:101A800044656275672053706565642020202020BE
:101A900020000000656E61626C000000756E73745A
:101AA000610000001A00002063616C6962000000A0
:101AB00053746F7020202020202020202020202000
:101AC000200000004469676974616C204C6F636199
